:060000000A128A11FC2F18
:10001400FB01FC0183120313201C11281228182849
:100024002208FB070318FC0A2308FC07013003100D
:10003400A20DA30DFF3E031D192801300310A10CCE
:10004400A00CFF3E031D202820082104031D2B289B
:100054002C280C287C08A1007B08A000080083122F
:10006400031341088039C2004208CB004108C20092
:100074004207C3004308D200C01F41284228432836
:10008400521452080319472848285828520A031DB5
:100094004C284D2855280030C1000030C0000030E5
:1000A400BF000030BE00C017C10160280030C1008D
:1000B4000030C0000030BF000030BE003D08803971
:1000C400C2004208CB063D08C2004207C3004308F1
:1000D400D300BC1F6E286F287028531453080319CB
:1000E400742875288528530A031D79287A288228BC
:1000F4000030BD000030BC000030BB000030BA004E
:10010400BC17BD018D280030BD000030BC0000309C
:10011400BB000030BA003D083C043B043A04031D14
:1001240094289528AE280030C1000030C00000306B
:10013400BF000030BE008030C0047F30C1044B08D3
:10014400C2004208C1044108BD004008BC003F0889
:10015400BB003E08BA000D2A5208031DB228B3287A
:10016400BC280030BD000030BC000030BB000030B3
:10017400BA000D2A5208C200C3014308C50053083F
:100184004202C400031CC50344087F3ECC0045085A
:100194000318013E003ECD004108CA004008C900D2
:1001A4003F08C8003E08C7000030C1000030C0004E
:1001B4000030BF000030BE000030D1000030D0005D
:1001C4000030CF000030CE00D30132295308031988
:1001D400EC28ED280D290130C2000310C70DC80D0D
:1001E400C90DCA0DC20BEF280130C2000310BE0DA9
:1001F400BF0DC00DC10DC20BF828D11F0229032960
:1002040004293E140130C2000310CE0DCF0DD00DD1
:10021400D10DC20B06293D084A02031D1B293C08C7
:100224004902031D1B293B084802031D1B293A08E8
:100234004702031C1E291F292E2951173A08C702F9
:100244003B08031C3B0FC8023C08031C3C0FC902BB
:100254003D08031C3D0FCA020130C2004208D30707
:100264001A305302031C37293829E8284A0849045C
:100274004804470403193F2940295F294E145F2984
:100284000130C2000310BE0DBF0DC00DC10DC20B65
:100294004429D11F4E294F2950293E140130C20050
:1002A4000310CE0DCF0DD00DD10DC20B5229FF304E
:1002B400CC070318CD0AFF30CD07C01F622963297C
:1002C4004229D301D11F672968298429FF304E05AB
:1002D400C200FF304F05C300FF305005C4007F301B
:1002E4005105C500450844044304420403197B290D
:1002F4007C297F29D301D30A84293E1C822983299E
:1003040084297C295308031988298929BA290130A9
:10031400BE07003003180130BF0700300318013056
:10032400C007003003180130C107411C9A299B29DA
:10033400BA293E08C2003F08C3004008C40041086F
:10034400C5000130C600450DC50CC40CC30CC20C5D
:10035400C60BA5294508C1004408C0004308BF00D6
:100364004208BE000130CC070318CD0A0030CD0787
:100374004D08803AFF0080307F02031DC329FF30FF
:100384004C02031CC629C729D529FF308312031345
:10039400CC000030CD000030C1000030C00000307F
:1003A400BF000030BE00831203134D08803AFF00E3
:1003B40080307F02031DE02901304C020318E32939
:1003C400E429F12983120313CC01CD010030C100CB
:1003D4000030C0000030BF000030BE00CB018312EB
:1003E40003134C08C2004208D200521CFA29FB290C
:1003F400FD29C017012A7F30C2004208C0055208F7
:10040400C2000310420CC3004308C1004B08C200E1
:100414004208C104A5280800831203138901880136
:100424008501093083160313850089018801013091
:1004340083160317880089018130831203139F00F8
:10044400B030831603139F00383083120313D40093
:100454005408F90000300A128A15B9250A128A11C3
:100464000E3083120313D4005408F90000300A122A
:100474008A15B9250A128A110C3083120313D40089
:100484005408F90000300A128A15B9250A128A1193
:10049400803083120313D4005408F90000300A1288
:1004A4008A15B9250A128A11831203139F149F18FF
:1004B4005C2A5D2A592A831603131E088312031328
:1004C400D400D5015408EA005508EB001E08D400F6
:1004D400D5015408E8005508E9008030D4005408D8
:1004E400F90000300A128A15B9250A128A118312FA
:1004F400031368086904031D802A812A852A6B086E
:10050400E7006A08E6008030D4005408F90000309F
:100514000A128A15B9250A128A1183120313680371
:100524006904031D962A972A9F2A6A08003EE6005A
:100534006B080318013E013EE7008030D4005408E4
:10054400F90000300A128A15B9250A128A110230FC
:100554008312031368066904031DB12AB22ABA2A56
:100564006A08003EE6006B080318013E023EE700FD
:100574008030D4005408F90000300A128A15B925D5
:100584000A128A1103308312031368066904031DD7
:10059400CC2ACD2AD52A6A08003EE6006B08031847
:1005A400013E033EE7008030D4005408F9000030D7
:1005B4000A128A15B9250A128A11E830F0000330AC
:1005C400F100831203136708F3006608F2000A12AD
:1005D4008A150C260A128A11710883120313E1008A
:1005E4007008E0006430F0000030F1006108F300AE
:1005F4006008F2000A128A1565260A128A11710827
:1006040083120313E3007008E2006430F00000304A
:10061400F1006108F3006008F2000A128A150C2642
:100624000A128A11710883120313E5007008E400AA
:100634000A30F0000030F1006508F3006408F200AD
:100644000A128A1565260A128A1171088312031385
:10065400DF007008DE000A30F0000030F1006508A9
:10066400F3006408F2000A128A150C260A128A1191
:10067400710883120313DB007008DA00E830F0001D
:100684000330F1006708F3006608F2000A128A15C5
:1006940065260A128A117008303E83120313D400AF
:1006A4005408F90001300A128A15B9250A128A1170
:1006B400831203136208303ED4005408F900013059
:1006C4000A128A15B9250A128A11831203135E08C5
:1006D400303ED4005408F90001300A128A15B925B5
:1006E4000A128A11831203135A08303ED4005408A4
:1006F400F90001300A128A15B9250A128A118530C7
:1007040083120313D4005408F90000300A128A1526
:10071400B9250A128A11443083120313BD007F30B5
:10072400BC00C030BB000030BA004330A300163018
:10073400A2000030A1000030A0006608F0006708A5
:10074400F1000030F11BFF30F200F30001300A1217
:100754008A1546270A128A11730883120313A70005
:100764007208A6007108A5007008A4000A128A1174
:100774009B240A128A11831203132308C10022083E
:10078400C0002108BF002008BE000A128A113120CF
:100794000A128A11831203133D08D9003C08D800B9
:1007A4003B08D7003A08D6005908F3005808F2006D
:1007B4005708F1005608F0000A128A15CC260A12CE
:1007C4008A11710883120313A1007008A0000A3073
:1007D400A2000030A3000A128A110A200A128A1108
:1007E400831203132108DD002008DC006430F000CC
:1007F4000030F1005D08F3005C08F2000A128A156B
:100804000C260A128A11353083120313D4005408BB
:10081400F90001300A128A15B9250A128A112E30FC
:1008240083120313D4005408F90001300A128A1504
:10083400B9250A128A11303083120313D4005408E4
:10084400F90001300A128A15B9250A128A11893071
:1008540083120313D4005408F90000300A128A15D5
:10086400B9250A128A110A30F0000030F100323042
:10087400F2000030F3000A128A1565260A128A1162
:10088400710883120313E5007008E4000A30F000D5
:100894000030F1003230F2000030F3000A128A1501
:1008A4000C260A128A11710883120313DF007008E0
:1008B400DE003130D4005408F90001300A128A15E0
:1008C400B9250A128A11831203136408303ED40036
:1008D4005408F90001300A128A15B9250A128A113E
:1008E400831203135E08303ED4005408F90001302B
:1008F4000A128A15B9250A128A11F83083120313D1
:10090400D4005408F90001300A128A15B9250A12D4
:100914008A11433083120313D4005408F9000130C0
:100924000A128A15B9250A128A11562A0A128A113C
:1009340000288312031323088039A8002808AD0077
:100944002308A8002807A9002908B300A21FAB2C7C
:10095400AC2CAD2C331433080319B12CB22CC12C9C
:10096400330A031DB62CB72CBF2C0030A300003073
:10097400A2000030A1000030A000A217C92C003052
:10098400A3000030A2000030A1000030A00027081E
:100994008039A8002808AD062708A8002807A90060
:1009A4002908B200A61FD72CD82CD92C321432080F
:1009B4000319DD2CDE2CED2C320A031DE22CE32C72
:1009C400EB2C0030A7000030A6000030A50000305A
:1009D400A400A617F52C0030A7000030A6000030B4
:1009E400A5000030A40032080319F92CFA2CFF2CBE
:1009F4003308031DFE2CFF2C082D0030A30000300B
:100A0400A2000030A1000030A000FB2F2008A800A5
:100A14002808F00026080A128A15E5250A128A1108
:100A2400710883120313B9007008B8003808A800CD
:100A3400A901AA01AB012B08B1002A08B0002908BA
:100A4400AF002808AE003908A800A901AA01AB012B
:100A54002B08B7002A08B6002908B5002808B400F6
:100A64002108A8002808F00025080A128A15E5259F
:100A74000A128A11710883120313B9007008B800AE
:100A84003808A800A901AA01AB012808AE07290863
:100A940003110318013E0319502DAF072A0803114F
:100AA4000318013E0319572DB0072B08031103182F
:100AB400013E03195E2DB1073908A800A901AA0156
:100AC400AB012808B407290803110318013E0319D0
:100AD4006C2DB5072A0803110318013E0319732D61
:100AE400B6072B0803110318013E03197A2DB70723
:100AF4002208A8002808F00024080A128A15E5250F
:100B04000A128A11710883120313B9007008B8001D
:100B14003808A800A901AA01AB012808AE072908D2
:100B240003110318013E0319982DAF072A08031176
:100B34000318013E03199F2DB0072B080311031856
:100B4400013E0319A62DB1073908A800A901AA017D
:100B5400AB012808B407290803110318013E03193F
:100B6400B42DB5072A0803110318013E0319BB2D40
:100B7400B6072B0803110318013E0319C22DB7074A
:100B84000830A8000310AE0DAF0DB00DB10DA80BC9
:100B9400C42D2108A8002808F00024080A128A1588
:100BA400E5250A128A11710883120313B90070082B
:100BB400B8003808A8003908A900AA01AB01280820
:100BC400AE07290803110318013E0319EA2DAF07E4
:100BD4002A0803110318013E0319F12DB0072B084D
:100BE40003110318013E0319F82DB1072008A800CA
:100BF4002808F00025080A128A15E5250A128A1128
:100C0400710883120313B9007008B8003808A800EB
:100C14003908A900AA01AB012808AE072908031165
:100C24000318013E0319172EAF072A0803110318EE
:100C3400013E03191E2EB0072B0803110318013EB1
:100C44000319252EB1070830A8000310AE0DAF0D0F
:100C5400B00DB10DA80B272E2008A8002808F0001D
:100C640024080A128A15E5250A128A1171088312CA
:100C74000313B9007008B8003808A8003908A9009F
:100C8400AA01AB012808AE07290803110318013E85
:100C940003194D2EAF072A0803110318013E031947
:100CA400542EB0072B0803110318013E03195B2EC1
:100CB400B1072108A8002808F00026080A128A159E
:100CC400E5250A128A11710883120313B90070080A
:100CD400B8003808A8003908A900AA01AB012808FF
:100CE400B407290803110318013E03197A2EB50726
:100CF4002A0803110318013E0319812EB6072B0895
:100D040003110318013E0319882EB7072208A8000F
:100D14002808F00025080A128A15E5250A128A1106
:100D2400710883120313B9007008B8003808A800CA
:100D34003908A900AA01AB012808B407290803113E
:100D44000318013E0319A72EB5072A080311031837
:100D5400013E0319AE2EB6072B0803110318013EFA
:100D64000319B52EB7072208A8002808F0002608A2
:100D74000A128A15E5250A128A11710883120313CF
:100D8400B9007008B8003808A8003908A900AA01F9
:100D9400AB0108300310A80DA90DAA0DAB0DFF3E41
:100DA400031DCC2E2808B407290803110318013E9B
:100DB4000319DD2EB5072A0803110318013E031990
:100DC400E42EB6072B0803110318013E0319EB2E7A
:100DD400B7072E08A8002F08A9003008AA00310878
:100DE400AB0018300310AB0CAA0CA90CA80CFF3EE6
:100DF400031DF42E2808B407290803110318013E23
:100E04000319052FB5072A0803110318013E031916
:100E14000C2FB6072B0803110318013E0319132FD7
:100E2400B7070830A8000310AE0DAF0DB00DB10D1B
:100E3400A80B152F33083207A800A901A90D28080B
:100E4400823EB80029080318013EFF3EB900472F2F
:100E54000130A8000310B40DB50DB60DB70DA80BE5
:100E64002C2FB11F362F372F382F34140130A80000
:100E74000310AE0DAF0DB00DB10DA80B3A2FFF301E
:100E8400B8070318B90AFF30B907B61F4A2F4B2F0A
:100E94002A2FB201B11F4F2F502F6C2FFF302E0578
:100EA400A800FF302F05A900FF303005AA007F30CD
:100EB4003105AB002B082A04290428040319632FE5
:100EC400642F672FB201B20A6C2F341C6A2F6B2F68
:100ED4006C2F642F32080319702F712FA22F013049
:100EE400B407003003180130B5070030031801308F
:100EF400B607003003180130B707371C822F832F41
:100F0400A22F3408A8003508A9003608AA0037081B
:100F1400AB000130AC002B0DAB0CAA0CA90CA80C37
:100F2400AC0B8D2F2B08B7002A08B6002908B50092
:100F34002808B4000130B8070318B90A0030B9070B
:100F44003908803AFF0080307F02031DAB2FFF3049
:100F54003802031CAE2FAF2FBA2F7F308312031336
:100F6400B7008030B6000030B5000030B400EF2F79
:100F7400831203133908803AFF0080307F02031D77
:100F8400C52F013038020318C82FC92FD52F0030C0
:100F940083120313B7000030B6000030B5000030F0
:100FA400B400AD01EF2F831203133808A8002808FA
:100FB400B300FF30B405FF30B5057F30B60500300F
:100FC400B705331CE62FE72FE82FB6173308A80020
:100FD4000310280CA9002908B7002D08A800280828
:100FE400B7043708A3003608A2003508A100340866
:0C0FF400A000080083010A128A110E2AD6
:101B54000130F0020030031CF103F102700A031D8E
:101B6400B72D710A031DB72DB82DAA2D0800FA0050
:101B74007A18BD2DC12D831203130914C42D8312A9
:101B840003130910790888000A128A15CC250A1251
:101B94008A150800831203138914F430F00001300D
:101BA400F1000A128A15AA250A128A158312031350
:101BB4008910F430F0000130F1000A128A15AA25C8
:101BC4000A128A150800F800F401F5017008F20001
:101BD400F3017208F6007308F700781CF22DF32D58
:101BE400F92D7608F4070318F50A7708F50701308C
:101BF4000310F60DF70DFF3E031DFA2D0310F80C2C
:101C04007808031D062E072EEF2D7508F1007408C1
:101C1400F0000800F601F31F102E112E182EF20901
:101C2400F309F20A0319F30AF601F60AF11F1B2E4F
:101C34001C2E212EF009F109F00A0319F10A70088B
:101C440071040319262E272E562EF501F50A352E7A
:101C540001300310F00DF10DFF3E031D2B2E01305A
:101C6400F4007408F507F11F382E392E2A2E710856
:101C74007302031D3F2E70087202031C422E432E72
:101C8400492E7008F2027108031CF303F3020130B9
:101C94000310F10CF00CFF3E031D4A2E0130F50237
:101CA400031D552E562E392E760803195A2E5B2EF7
:101CB400602EF209F309F20A0319F30A7308F1001A
:101CC4007208F0000800F601F11F692E6A2E712EC9
:101CD400F009F109F00A0319F10AF601F60AF31FF3
:101CE400742E752E7E2EF209F309F20A0319F30AF3
:101CF4000130F4007408F606F701F8017008710465
:101D04000319852E862EBD2EF501F50A942E013079
:101D14000310F00DF10DFF3E031D8A2E0130F40077
:101D24007408F507F11F972E982E892E01300310A1
:101D3400F70DF80DFF3E031D992E71087302031D64
:101D4400A52E70087202031CA82EA92EB02E7008AE
:101D5400F2027108031CF303F30277140130031039
:101D6400F10CF00CFF3E031DB12E0130F502031DF2
:101D7400BC2EBD2E982E76080319C12EC22EC72E56
:101D8400F709F809F70A0319F80A7808F10077083F
:101D9400F00008000310720D730DF4007408FA00CB
:101DA4007A08031DD62ED72EE02E0030F300003023
:101DB400F2000030F1000030F000452F7008F4000C
:101DC4007108F5007208F6007308F7001F3003105D
:101DD400F70CF60CF50CF40CFF3E031DE92E740809
:101DE400F8007808F900F217FF30F005FF30F1052C
:101DF400FF30F2050030F3059630FA02FA1F032F84
:101E0400042F1E2F7A08803A973E03180A2F0B2FAF
:101E14000C2FD72E01300310F30CF20CF10CF00C44
:101E2400FF3E031D0D2F0130F4007408FA07031D53
:101E34001C2F1D2F0C2F352F20307A02031C232F2B
:101E4400242F302FD72E0130F4000310F00DF10DA4
:101E5400F20DF30DF40B272F0130FA027A08031D5B
:101E6400342F352F252F79080319392F3A2F452F71
:101E7400F009F109F209F309F00A0319F10A031947
:101E8400F20A0319F30A0800F800780803194B2F23
:101E94004C2F602FF31F4F2F502F602F7009FA0023
:101EA4007109FB007209FC007309FD00FA0A0319A9
:101EB400FB0A0319FC0A0319FD0A682F7308FD00C5
:101EC4007208FC007108FB007008FA0073087204C1
:101ED40071047004031D6F2F702F792F0030F300ED
:101EE4000030F2000030F1000030F000FF2F963097
:101EF400F4007408F9008B2F0130F4007408F9071A
:101F040001300310FD0CFC0CFB0CFA0CFF3E031D0E
:101F1400832FFE307D05031D902F912F7E2FAD2F33
:101F24000130F4007408F9070130FA07003003188F
:101F34000130FB07003003180130FC0700300318A0
:101F44000130FD0701300310FD0CFC0CFB0CFA0CF6
:101F5400FF3E031DA52FFF307D05031DB22FB32FB8
:101F6400922FBF2F0130F9020130F4000310FA0D53
:101F7400FB0DFC0DFD0DF40BB82FFC1BC22FC32F62
:101F8400C92F023079020318C82FC92FB42F79182A
:101F9400CC2FCD2FD52FFF30FA05FF30FB057F3036
:101FA400FC05FF30FD050310F90C7908F400F50178
:101FB400F601F70118300310F40DF50DF60DF70DC9
:101FC400FF3E031DDD2F7408FA047508FB04760830
:101FD400FC047708FD0478080319F12FF22FF72F7A
:101FE400F31FF52FF62FF72FFD177D08F3007C085C
:0C1FF400F2007B08F1007A08F000080001
:08400000FF3FFF3FFF3FFF3FC0
:04400E00E42CFF3F60
:00000001FF
