:060000000A128A11EB2F29
:10000A0064008001840A04060319003404060628E1
:10001A0083120313A101F71F132814281B28F609BA
:10002A00F709F60A0319F70AA101A10AF91F1E28FE
:10003A001F282828F809F909F80A0319F90A0130CA
:10004A00FA007A08A106A201A30176087704031927
:10005A002F2830286728A001A00A3E280130031063
:10006A00F60DF70DFF3E031D34280130FA007A0819
:10007A00A007F71F41284228332801300310A20D98
:10008A00A30DFF3E031D432877087902031D4F285D
:10009A0076087802031C522853285A287608F80250
:1000AA007708031CF903F902221401300310F70C34
:1000BA00F60CFF3E031D5B280130A002031D6628D3
:1000CA0067284228210803196B286C287128A2097D
:1000DA00A309A20A0319A30A2308F7002208F600B3
:1000EA0008008312031341088039C2004208CB007A
:1000FA004108C2004207C3004308D200C01F862835
:10010A00872888285214520803198C288D289D287C
:10011A00520A031D912892289A280030C100003003
:10012A00C0000030BF000030BE00C017C101A528C2
:10013A000030C1000030C0000030BF000030BE00F7
:10014A003D088039C2004208CB063D08C20042077A
:10015A00C3004308D300BC1FB328B428B5285314DE
:10016A0053080319B928BA28CA28530A031DBE28F6
:10017A00BF28C7280030BD000030BC000030BB00DB
:10018A000030BA00BC17BD01D2280030BD000030D3
:10019A00BC000030BB000030BA003D083C043B0400
:1001AA003A04031DD928DA28F3280030C1000030A8
:1001BA00C0000030BF000030BE008030C0047F3075
:1001CA00C1044B08C2004208C1044108BD004008EE
:1001DA00BC003F08BB003E08BA00522A5208031D61
:1001EA00F728F82801290030BD000030BC00003093
:1001FA00BB000030BA00522A5208C200C3014308A9
:10020A00C50053084202C400031CC50344087F3ECC
:10021A00CC0045080318013E003ECD004108CA0043
:10022A004008C9003F08C8003E08C7000030C100A6
:10023A000030C0000030BF000030BE000030D100E6
:10024A000030D0000030CF000030CE00D301772933
:10025A00530803193129322952290130C2000310E7
:10026A00C70DC80DC90DCA0DC20B34290130C20011
:10027A000310BE0DBF0DC00DC10DC20B3D29D11F0C
:10028A004729482949293E140130C2000310CE0DDE
:10029A00CF0DD00DD10DC20B4B293D084A02031DCB
:1002AA0060293C084902031D60293B084802031DD6
:1002BA0060293A084702031C6329642973295117E4
:1002CA003A08C7023B08031C3B0FC8023C08031C40
:1002DA003C0FC9023D08031C3D0FCA020130C2008F
:1002EA004208D3071A305302031C7C297D292D2981
:1002FA004A08490448044704031984298529A4297A
:10030A004E14A4290130C2000310BE0DBF0DC00D4A
:10031A00C10DC20B8929D11F9329942995293E140D
:10032A000130C2000310CE0DCF0DD00DD10DC20B7E
:10033A009729FF30CC070318CD0AFF30CD07C01F1D
:10034A00A729A8298729D301D11FAC29AD29C929F1
:10035A00FF304E05C200FF304F05C300FF30500585
:10036A00C4007F305105C5004508440443044204D3
:10037A000319C029C129C429D301D30AC9293E1C9A
:10038A00C729C829C929C12953080319CD29CE2942
:10039A00FF290130BE07003003180130BF070030C3
:1003AA0003180130C007003003180130C107411C8F
:1003BA00DF29E029FF293E08C2003F08C3004008A0
:1003CA00C4004108C5000130C600450DC50CC40C67
:1003DA00C30CC20CC60BEA294508C1004408C00078
:1003EA004308BF004208BE000130CC070318CD0AFB
:1003FA000030CD074D08803AFF0080307F02031D90
:10040A00082AFF304C02031C0B2A0C2A1A2AFF3036
:10041A0083120313CC000030CD000030C10000303D
:10042A00C0000030BF000030BE00831203134D0825
:10043A00803AFF0080307F02031D252A01304C02DA
:10044A000318282A292A362A83120313CC01CD013C
:10045A000030C1000030C0000030BF000030BE00D4
:10046A00CB01831203134C08C2004208D200521C6B
:10047A003F2A402A422AC017462A7F30C200420831
:10048A00C0055208C2000310420CC3004308C10051
:10049A004B08C2004208C104EA2808008312031369
:1004AA008901880186018501831603138901880160
:1004BA0001308600B130831203139F008030831607
:1004CA0003139F0003308500831603178801103039
:1004DA008900383083120313D4005408A80000306E
:1004EA000A128A1563240A128A110C308312031322
:1004FA00D4005408A80000300A128A1563240A128C
:10050A008A11803083120313D4005408A8000030E3
:10051A000A128A1563240A128A110E3083120313EF
:10052A00D4005408A80000300A128A1563240A125B
:10053A008A11831603131E0883120313D400D501EC
:10054A005408E2005508E3001E08D400D5015408F7
:10055A00E0005508E1009F14802C8030D400540834
:10056A00A80000300A128A1563240A128A1183121B
:10057A00031360086104031DC32AC42AC82A630836
:10058A00DF006208DE008030D4005408A800003082
:10059A000A128A1563240A128A118312031360034A
:1005AA006104031DD92ADA2AE22A6208003EDE0023
:1005BA0063080318013E013EDF008030D40054086E
:1005CA00A80000300A128A1563240A128A1102301E
:1005DA008312031360066104031DF42AF52AFD2A17
:1005EA006208003EDE0063080318013E023EDF0097
:1005FA008030D4005408A80000300A128A156324F7
:10060A000A128A1103308312031360066104031D60
:10061A000F2B102B182B6208003EDE00630803180C
:10062A00013E033EDF00051C1B2B1C2B142C8030C3
:10063A00D4005408A80000300A128A1563240A124A
:10064A008A11443083120313BD007F30BC00C030CE
:10065A00BB000030BA004030A300A030A200003036
:10066A00A1000030A0005E08F0005F08F100003031
:10067A00F11BFF30F200F30001300A128A155E26E0
:10068A000A128A11730883120313A7007208A600BC
:10069A007108A5007008A4000A128A118A240A1295
:1006AA008A11831203132308C1002208C0002108FB
:1006BA00BF002008BE000A128A1176200A128A1187
:1006CA00831203133D08D9003C08D8003B08D70021
:1006DA003A08D6001630AA008030AB000A128A15F2
:1006EA00DD240A128A11831203135908A700580835
:1006FA00A6005708A5005608A4004230A300C83037
:10070A00A2000030A1000030A0000A128A118A2437
:10071A000A128A11831203132308BD002208BC009F
:10072A002108BB002008BA000A128A15E2250A121B
:10073A008A11831203133B08DB003A08DA000A30F5
:10074A00A4000030A5006430F6000030F7005B0812
:10075A00F9005A08F8000A128A110D200A128A11A1
:10076A00770883120313A7007608A6000A128A15CF
:10077A0087250A128A11831203132408303ED400F3
:10078A005408A80001300A128A1563240A128A1131
:10079A000A3083120313A4000030A5000A30F600C1
:1007AA000030F7005B08F9005A08F8000A128A11AB
:1007BA000D200A128A11770883120313A7007608FC
:1007CA00A6000A128A1587250A128A1183120313B0
:1007DA002408303ED4005408A80001300A128A15B1
:1007EA0063240A128A110A3083120313A400003008
:1007FA00A5005B08A7005A08A6000A128A158725D1
:10080A000A128A11831203132408303ED4005408B2
:10081A00A80001300A128A1563240A128A11831267
:10082A000313851C192C1A2C6E2CC030D4005408C2
:10083A00A80000300A128A1563240A128A110B30A2
:10084A0083120313AA008030AB000A128A15DD2432
:10085A000A128A110530F6000030F70083120313DA
:10086A005B08F1005A08F0000930F2000030F3008A
:10087A000A128A1591240A128A117108F90070085D
:10088A00F8000A128A110D200A128A117608203EEF
:10089A0083120313DC0077080318013E003EDD00D3
:1008AA001F30D4005408A0005D08A2005C08A10013
:1008BA00A0300A128A1518270A128A11A030831248
:1008CA000313AA000030AB000A128A15DD240A12AB
:1008DA008A11831203135D08803AFF0080307F0279
:1008EA00031D792C63305C02031C7C2C7D2C802C2C
:1008FA00831203138614831203139F18852C862CE4
:10090A00B22A9E2A0A128A11002883120313230884
:10091A008039A8002808AD002308A8002807A900E4
:10092A002908B300A21F9A2C9B2C9C2C3314330841
:10093A000319A02CA12CB02C330A031DA52CA62C1C
:10094A00AE2C0030A3000030A2000030A10000301D
:10095A00A000A217B82C0030A3000030A20000307B
:10096A00A1000030A00027088039A8002808AD0699
:10097A002708A8002807A9002908B200A61FC62C24
:10098A00C72CC82C321432080319CC2CCD2CDC2CE1
:10099A00320A031DD12CD22CDA2C0030A7000030E9
:1009AA00A6000030A5000030A400A617E42C0030F1
:1009BA00A7000030A6000030A5000030A4003208CD
:1009CA000319E82CE92CEE2C3308031DED2CEE2C30
:1009DA00F72C0030A3000030A2000030A100003044
:1009EA00A000EA2F2008A8002808F00026080A120A
:1009FA008A15B6240A128A11710883120313B900E0
:100A0A007008B8003808A800A901AA01AB012B0890
:100A1A00B1002A08B0002908AF002808AE0039083A
:100A2A00A800A901AA01AB012B08B7002A08B60041
:100A3A002908B5002808B4002108A8002808F000F1
:100A4A0025080A128A15B6240A128A117108831215
:100A5A000313B9007008B8003808A800A901AA0150
:100A6A00AB012808AE07290803110318013E031930
:100A7A003F2DAF072A0803110318013E0319462D1B
:100A8A00B0072B0803110318013E03194D2DB107B6
:100A9A003908A800A901AA01AB012808B407290846
:100AAA0003110318013E03195B2DB5072A08031128
:100ABA000318013E0319622DB6072B080311031808
:100ACA00013E0319692DB7072208A8002808F0007B
:100ADA0024080A128A15B6240A128A117108831286
:100AEA000313B9007008B8003808A800A901AA01C0
:100AFA00AB012808AE07290803110318013E0319A0
:100B0A00872DAF072A0803110318013E03198E2DFA
:100B1A00B0072B0803110318013E0319952DB107DD
:100B2A003908A800A901AA01AB012808B4072908B5
:100B3A0003110318013E0319A32DB5072A0803114F
:100B4A000318013E0319AA2DB6072B08031103182F
:100B5A00013E0319B12DB7070830A8000310AE0DE6
:100B6A00AF0DB00DB10DA80BB32D2108A8002808B0
:100B7A00F00024080A128A15B6240A128A1171088A
:100B8A0083120313B9007008B8003808A80039089E
:100B9A00A900AA01AB012808AE0729080311031806
:100BAA00013E0319D92DAF072A0803110318013E84
:100BBA000319E02DB0072B0803110318013E03198E
:100BCA00E72DB1072008A8002808F00025080A1216
:100BDA008A15B6240A128A11710883120313B900FE
:100BEA007008B8003808A8003908A900AA01AB01A2
:100BFA002808AE07290803110318013E0319062E17
:100C0A00AF072A0803110318013E03190D2EB00776
:100C1A002B0803110318013E0319142EB1070830DB
:100C2A00A8000310AE0DAF0DB00DB10DA80B162E16
:100C3A002008A8002808F00024080A128A15B624F9
:100C4A000A128A11710883120313B9007008B800D6
:100C5A003808A8003908A900AA01AB012808AE077C
:100C6A00290803110318013E03193C2EAF072A086D
:100C7A0003110318013E0319432EB0072B08031171
:100C8A000318013E03194A2EB1072108A8002808B3
:100C9A00F00026080A128A15B6240A128A11710867
:100CAA0083120313B9007008B8003808A80039087D
:100CBA00A900AA01AB012808B407290803110318DF
:100CCA00013E0319692EB5072A0803110318013ECC
:100CDA000319702EB6072B0803110318013E0319D6
:100CEA00772EB7072208A8002808F00025080A125C
:100CFA008A15B6240A128A11710883120313B900DD
:100D0A007008B8003808A8003908A900AA01AB0180
:100D1A002808B407290803110318013E0319962E5F
:100D2A00B5072A0803110318013E03199D2EB607B9
:100D3A002B0803110318013E0319A42EB707220832
:100D4A00A8002808F00026080A128A15B6240A12F2
:100D5A008A11710883120313B9007008B8003808A1
:100D6A00A8003908A900AA01AB0108300310A80D90
:100D7A00A90DAA0DAB0DFF3E031DBB2E2808B40713
:100D8A00290803110318013E0319CC2EB5072A08B6
:100D9A0003110318013E0319D32EB6072B080311BA
:100DAA000318013E0319DA2EB7072E08A8002F08E8
:100DBA00A9003008AA003108AB0018300310AB0CA8
:100DCA00AA0CA90CA80CFF3E031DE32E2808B407A1
:100DDA00290803110318013E0319F42EB5072A083E
:100DEA0003110318013E0319FB2EB6072B08031142
:100DFA000318013E0319022FB7070830A800031091
:100E0A00AE0DAF0DB00DB10DA80B042F330832078C
:100E1A00A800A901A90D2808823EB80029080318CC
:100E2A00013EFF3EB900362F0130A8000310B40D71
:100E3A00B50DB60DB70DA80B1B2FB11F252F262FE9
:100E4A00272F34140130A8000310AE0DAF0DB00DDA
:100E5A00B10DA80B292FFF30B8070318B90AFF30C4
:100E6A00B907B61F392F3A2F192FB201B11F3E2FDA
:100E7A003F2F5B2FFF302E05A800FF302F05A9005A
:100E8A00FF303005AA007F303105AB002B082A0459
:100E9A00290428040319522F532F562FB201B20ADC
:100EAA005B2F341C592F5A2F5B2F532F32080319EB
:100EBA005F2F602F912F0130B407003003180130E3
:100ECA00B507003003180130B607003003180130A7
:100EDA00B707371C712F722F912F3408A8003508D5
:100EEA00A9003608AA003708AB000130AC002B0D68
:100EFA00AB0CAA0CA90CA80CAC0B7C2F2B08B700C6
:100F0A002A08B6002908B5002808B4000130B80735
:100F1A000318B90A0030B9073908803AFF0080304F
:100F2A007F02031D9A2FFF303802031C9D2F9E2F2C
:100F3A00A92F7F3083120313B7008030B600003028
:100F4A00B5000030B400DE2F831203133908803A4B
:100F5A00FF0080307F02031DB42F013038020318CE
:100F6A00B72FB82FC42F003083120313B7000030F5
:100F7A00B6000030B5000030B400AD01DE2F831298
:100F8A0003133808A8002808B300FF30B405FF305F
:100F9A00B5057F30B6050030B705331CD52FD62FDF
:100FAA00D72FB6173308A8000310280CA900290860
:100FBA00B7002D08A8002808B7043708A300360888
:100FCA00A2003508A1003408A00008008313563097
:100FDA00840064300A128A1105200A128A11A0308C
:100FEA008400B4300A128A1105200A128A11830178
:100FFA000A128A11532AFF1B0A2883137F188317A0
:10100A000008840A0319FF0A080008308A00040845
:10101A00840A82070034013400340A340034643408
:10102A000034E8340334103427344634413452341B
:10103A0045344E3448344534493454343A3400340F
:10104A00433445344C3443344934553453343A34B4
:08105A00003425346434003435
:1018A8000130F0020030031CF103F102700A031D3D
:1018B800612C710A031D612C622C542C08008312C0
:1018C8000313A9002918692C6D2C8312031309141A
:1018D800702C831203130910280888000A128A152D
:1018E80078240A128A150800831203138914883091
:1018F800F0001330F1000A128A1554240A128A15CE
:101908008312031389108830F0001330F1000A1293
:101918008A1554240A128A150800F401F501701C6E
:10192800962C972C9D2C7208F4070318F50A730857
:10193800F50701300310F20DF30DFF3E031D9E2C39
:1019480001300310F10CF00CFF3E031DA52C7008AC
:101958007104031DB02CB12C932C7508F100740888
:10196800F0000800F800F401F5017008F200F30136
:101978007208F6007308F700781CC32CC42CCA2C14
:101988007608F4070318F50A7708F50701300310FD
:10199800F60DF70DFF3E031DCB2C0310F80C78084D
:1019A800031DD72CD82CC02C7508F1007408F00042
:1019B8000800F82C2B08FF002A0884000A128A1550
:1019C80000200A128A15AC002C08A80001300A125F
:1019D8008A1563240A128A15013083120313AA0791
:1019E8000318AB0A0030AB07831203132B08FF0060
:1019F8002A0884000A128A1500200A128A15003A59
:101A0800031D072D082DDE2C08007808790403191A
:101A18000E2D0F2D3E2DFD01FD0A1D2D0130031049
:101A2800F80DF90DFF3E031D132D0130FC007C0855
:101A3800FD07F91F202D212D122D79087B02031D8A
:101A4800272D78087A02031C2A2D2B2D312D780892
:101A5800FA027908031CFB03FB0201300310F90C9E
:101A6800F80CFF3E031D322D0130FD02031D3D2DF4
:101A78003E2D212D7B08F9007A08F8000800F501B1
:101A8800F6017008710403194A2D4B2D822DF701B8
:101A9800F70A592D01300310F00DF10DFF3E031D1B
:101AA8004F2D0130F4007408F707F11F5C2D5D2DF0
:101AB8004E2D01300310F50DF60DFF3E031D5E2D72
:101AC80071087302031D6A2D70087202031C6D2DC4
:101AD8006E2D752D7008F2027108031CF303F302D2
:101AE800751401300310F10CF00CFF3E031D762D28
:101AF8000130F702031D812D822D5D2D7608F1003E
:101B08007508F0000800FD0183120313A71F8D2D2F
:101B18008E2D952DA609A709A60A0319A70AFD0166
:101B2800FD0AA51F982D992D9E2DA409A509A40A83
:101B38000319A50A240825040319A32DA42DD32DC0
:101B4800FC01FC0AB22D01300310A40DA50DFF3EC7
:101B5800031DA82D0130FB007B08FC07A51FB52D30
:101B6800B62DA72D25082702031DBC2D2408260203
:101B7800031CBF2DC02DC62D2408A6022508031C52
:101B8800A703A70201300310A50CA40CFF3E031DF8
:101B9800C72D0130FC02031DD22DD32DB62D7D0893
:101BA8000319D72DD82DDD2DA609A709A60A0319D3
:101BB800A70A2708A5002608A40008000310831216
:101BC80003133C0D3D0DBE003E08C4004408031D30
:101BD800EE2DEF2DF82D0030BD000030BC00003098
:101BE800BB000030BA005D2E3A08BE003B08BF00BB
:101BF8003C08C0003D08C1001F300310C10CC00CD8
:101C0800BF0CBE0CFF3E031D012E3E08C200420859
:101C1800C300BC17FF30BA05FF30BB05FF30BC0559
:101C28000030BD059630C402C41F1B2E1C2E362E54
:101C38004408803A973E0318222E232E242EEF2D97
:101C480001300310BD0CBC0CBB0CBA0CFF3E031DCD
:101C5800252E0130BE003E08C407031D342E352E44
:101C6800242E4D2E20304402031C3B2E3C2E482EA1
:101C7800EF2D0130BE000310BA0DBB0DBC0DBD0D1C
:101C8800BE0B3F2E0130C4024408031D4C2E4D2EBE
:101C98003D2E43080319512E522E5D2EBA09BB0959
:101CA800BC09BD09BA0A0319BB0A0319BC0A0319FE
:101CB800BD0A0800F80078080319632E642E782EF0
:101CC800F31F672E682E782E7009FA007109FB0041
:101CD8007209FC007309FD00FA0A0319FB0A0319CB
:101CE800FC0A0319FD0A802E7308FD007208FC0027
:101CF8007108FB007008FA0073087204710470041C
:101D0800031D872E882E912E0030F3000030F2003C
:101D18000030F1000030F000172F9630F4007408FE
:101D2800F900A32E0130F4007408F90701300310FC
:101D3800FD0CFC0CFB0CFA0CFF3E031D9B2EFE3029
:101D48007D05031DA82EA92E962EC52E0130F40060
:101D58007408F9070130FA07003003180130FB074F
:101D6800003003180130FC07003003180130FD076C
:101D780001300310FD0CFC0CFB0CFA0CFF3E031D9C
:101D8800BD2EFF307D05031DCA2ECB2EAA2ED72EC1
:101D98000130F9020130F4000310FA0DFB0DFC0DBF
:101DA800FD0DF40BD02EFC1BDA2EDB2EE12E0230BB
:101DB80079020318E02EE12ECC2E7918E42EE52EB8
:101DC800ED2EFF30FA05FF30FB057F30FC05FF30B4
:101DD800FD050310F90C7908F400F501F601F70187
:101DE80018300310F40DF50DF60DF70DFF3E031D29
:101DF800F52E7408FA047508FB047608FC047708C5
:101E0800FD0478080319092F0A2F0F2FF31F0D2F30
:101E18000E2F0F2FFD177D08F3007C08F2007B08BA
:101E2800F1007A08F000080083120313AB00213098
:101E3800A3002308A600E92F25302C060319252F17
:101E4800262F322F2C08A3002B0884002308831385
:101E580080000130A3002308AB07E92FA701013058
:101E6800A007FF30200784000A128A150A200A12E8
:101E78008A15AC00A300A4012408003A0319452FD1
:101E8800E92F2308003A0319FB2F643A0319502F4E
:101E98000D3A0319502FE92F2608840083130008F0
:101EA800A900840A0008AA000230A3002308A60794
:101EB800AA1F5F2F602F692F0330A3002308A704F0
:101EC800A909AA09A90A0319AA0AAC01AC0A2C088B
:101ED800A3002307013E84000A128A150A200A1269
:101EE8008A15A4000A128A150A200A128A15A50062
:101EF80025082A02031D822F240829020318852F8A
:101F0800862F872F912F0130A3002308AC070530B7
:101F18002C06031D902F912F6B2F270803390319C7
:101F2800962F972FA22F2D30A3002B08840023086B
:101F3800831380000130A3002308AB072C08A300FB
:101F48002308A800E02F0A30F8000030F90028081C
:101F5800A3002307013E84000A128A150A200A12E8
:101F68008A15F0000A128A150A200A128A15F10049
:101F78002A08F3002908F2000A128A1543250A12D2
:101F88008A157108FB007008FA000A128A150925DB
:101F98000A128A157808303E83120313A400240815
:101FA800AC002C08A3002B088400230883138000AE
:101FB8000130A3002308AB07FF30A3002308A807BC
:101FC800280A031DE82FE92FA72F0130A007FF30AB
:101FD800200784000A128A150A200A128A15A3000B
:101FE8002308AC002C08031DFA2FFB2F202F2B08E9
:081FF80084008313800108003E
:08400000FF3FFF3FFF3FFF3FC0
:04400E00E42CFF3F60
:00000001FF
